{
  "abi": [
    {
      "inputs": [
        {
          "internalType": "address",
          "name": "_outbox",
          "type": "address"
        },
        {
          "internalType": "address",
          "name": "_gasPayer",
          "type": "address"
        }
      ],
      "stateMutability": "nonpayable",
      "type": "constructor"
    },
    {
      "inputs": [
        {
          "internalType": "uint256",
          "name": "lenDomains",
          "type": "uint256"
        },
        {
          "internalType": "uint256",
          "name": "lenGasAmounts",
          "type": "uint256"
        }
      ],
      "name": "DifferentLengthArrays",
      "type": "error"
    },
    {
      "inputs": [
        {
          "internalType": "uint256",
          "name": "required",
          "type": "uint256"
        },
        {
          "internalType": "uint256",
          "name": "provided",
          "type": "uint256"
        }
      ],
      "name": "InsufficientGas",
      "type": "error"
    },
    {
      "inputs": [
        {
          "internalType": "address",
          "name": "addr",
          "type": "address"
        }
      ],
      "name": "InvalidAddress",
      "type": "error"
    },
    {
      "anonymous": false,
      "inputs": [
        {
          "indexed": false,
          "internalType": "uint32",
          "name": "destinationDomains",
          "type": "uint32"
        },
        {
          "indexed": false,
          "internalType": "bytes32",
          "name": "recipient",
          "type": "bytes32"
        },
        {
          "indexed": false,
          "internalType": "bytes",
          "name": "message",
          "type": "bytes"
        }
      ],
      "name": "DispatchMessage",
      "type": "event"
    },
    {
      "anonymous": false,
      "inputs": [
        {
          "indexed": false,
          "internalType": "uint32[]",
          "name": "destinationDomains",
          "type": "uint32[]"
        },
        {
          "indexed": false,
          "internalType": "bytes32",
          "name": "recipient",
          "type": "bytes32"
        },
        {
          "indexed": false,
          "internalType": "bytes",
          "name": "message",
          "type": "bytes"
        }
      ],
      "name": "DispatchMessageForMultipleChains",
      "type": "event"
    },
    {
      "inputs": [
        {
          "internalType": "uint32",
          "name": "_destinationDomain",
          "type": "uint32"
        },
        {
          "internalType": "uint256",
          "name": "_gasAmount",
          "type": "uint256"
        },
        {
          "internalType": "bytes32",
          "name": "_recipient",
          "type": "bytes32"
        },
        {
          "internalType": "bytes",
          "name": "_message",
          "type": "bytes"
        }
      ],
      "name": "dispatch",
      "outputs": [],
      "stateMutability": "payable",
      "type": "function"
    },
    {
      "inputs": [
        {
          "internalType": "uint32[]",
          "name": "_destinationDomain",
          "type": "uint32[]"
        },
        {
          "internalType": "uint256[]",
          "name": "_gasAmount",
          "type": "uint256[]"
        },
        {
          "internalType": "bytes32",
          "name": "_recipient",
          "type": "bytes32"
        },
        {
          "internalType": "bytes",
          "name": "_message",
          "type": "bytes"
        }
      ],
      "name": "dispatchForMultipleChains",
      "outputs": [],
      "stateMutability": "payable",
      "type": "function"
    },
    {
      "inputs": [
        {
          "internalType": "uint32",
          "name": "_destinationDomain",
          "type": "uint32"
        },
        {
          "internalType": "uint256",
          "name": "_gasAmount",
          "type": "uint256"
        }
      ],
      "name": "getQuote",
      "outputs": [
        {
          "internalType": "uint256",
          "name": "",
          "type": "uint256"
        }
      ],
      "stateMutability": "view",
      "type": "function"
    },
    {
      "inputs": [
        {
          "internalType": "uint32[]",
          "name": "_destinationDomain",
          "type": "uint32[]"
        },
        {
          "internalType": "uint256[]",
          "name": "_gasAmount",
          "type": "uint256[]"
        }
      ],
      "name": "getQuoteForMultipleChains",
      "outputs": [
        {
          "internalType": "uint256",
          "name": "",
          "type": "uint256"
        }
      ],
      "stateMutability": "view",
      "type": "function"
    }
  ],
  "bytecode": {
    "object": "0x608060405234801561001057600080fd5b50604051610ced380380610ced83398101604081905261002f916100e5565b6001600160a01b03821661006657604051634726455360e11b81526001600160a01b03831660048201526024015b60405180910390fd5b6001600160a01b03811661009857604051634726455360e11b81526001600160a01b038216600482015260240161005d565b600080546001600160a01b039384166001600160a01b03199182161790915560018054929093169116179055610118565b80516001600160a01b03811681146100e057600080fd5b919050565b600080604083850312156100f857600080fd5b610101836100c9565b915061010f602084016100c9565b90509250929050565b610bc6806101276000396000f3fe60806040526004361061003f5760003560e01c8063571fee3314610044578063b0cbd4d614610059578063dacb69ed1461008b578063fcf1c8871461009e575b600080fd5b610057610052366004610875565b6100be565b005b34801561006557600080fd5b50610079610074366004610932565b610466565b60405190815260200160405180910390f35b61005761009936600461095c565b6104e9565b3480156100aa57600080fd5b506100796100b93660046109c4565b6106c9565b8584146100ed576040516317c2588b60e01b815260048101879052602481018590526044015b60405180910390fd5b6000808767ffffffffffffffff81111561010957610109610a30565b604051908082528060200260200182016040528015610132578160200160208202803683370190505b50905060005b88811015610255576001546001600160a01b031663a69297938b8b8481811061016357610163610a46565b90506020020160208101906101789190610a5c565b8a8a8581811061018a5761018a610a46565b6040516001600160e01b031960e087901b16815263ffffffff9490941660048501526020029190910135602483015250604401602060405180830381865afa1580156101da573d6000803e3d6000fd5b505050506040513d601f19601f820116820180604052508101906101fe9190610a77565b82828151811061021057610210610a46565b60200260200101818152505081818151811061022e5761022e610a46565b6020026020010151836102419190610aa6565b92508061024d81610ab9565b915050610138565b5034821115610280576040516323e228cb60e01b8152600481018390523460248201526044016100e4565b60005b8881101561041b57600080546001600160a01b031663fa31de018c8c858181106102af576102af610a46565b90506020020160208101906102c49190610a5c565b8989896040518563ffffffff1660e01b81526004016102e69493929190610afb565b6020604051808303816000875af1158015610305573d6000803e3d6000fd5b505050506040513d601f19601f820116820180604052508101906103299190610a77565b60015484519192506001600160a01b0316906311bf2c189085908590811061035357610353610a46565b6020026020010151838e8e8781811061036e5761036e610a46565b90506020020160208101906103839190610a5c565b8d8d8881811061039557610395610a46565b6040516001600160e01b031960e089901b168152600481019590955263ffffffff939093166024850152506020909102013560448201523360648201526084016000604051808303818588803b1580156103ee57600080fd5b505af1158015610402573d6000803e3d6000fd5b505050505050808061041390610ab9565b915050610283565b507f31a36c6be578708937407e988608a8d883a60bb31af85142319aaadd009ff9ef8989878787604051610453959493929190610b2b565b60405180910390a1505050505050505050565b60015460405163a692979360e01b815263ffffffff84166004820152602481018390526000916001600160a01b03169063a692979390604401602060405180830381865afa1580156104bc573d6000803e3d6000fd5b505050506040513d601f19601f820116820180604052508101906104e09190610a77565b90505b92915050565b60015460405163a692979360e01b815263ffffffff87166004820152602481018690526000916001600160a01b03169063a692979390604401602060405180830381865afa15801561053f573d6000803e3d6000fd5b505050506040513d601f19601f820116820180604052508101906105639190610a77565b90503481111561058f576040516323e228cb60e01b8152600481018290523460248201526044016100e4565b6000805460405163fa31de0160e01b81526001600160a01b039091169063fa31de01906105c6908a90899089908990600401610afb565b6020604051808303816000875af11580156105e5573d6000803e3d6000fd5b505050506040513d601f19601f820116820180604052508101906106099190610a77565b600154604051630237e58360e31b81526004810183905263ffffffff8a166024820152604481018990523360648201529192506001600160a01b0316906311bf2c189034906084016000604051808303818588803b15801561066a57600080fd5b505af115801561067e573d6000803e3d6000fd5b50505050507fa8cb18504cdb7966d66f3ec8f19893bda1b449b35fd24d07c1b7181cf28c3c6b878686866040516106b89493929190610afb565b60405180910390a150505050505050565b60008382146106f5576040516317c2588b60e01b815260048101859052602481018390526044016100e4565b6000805b858110156107dd576001546001600160a01b031663a692979388888481811061072457610724610a46565b90506020020160208101906107399190610a5c565b87878581811061074b5761074b610a46565b6040516001600160e01b031960e087901b16815263ffffffff9490941660048501526020029190910135602483015250604401602060405180830381865afa15801561079b573d6000803e3d6000fd5b505050506040513d601f19601f820116820180604052508101906107bf9190610a77565b6107c99083610aa6565b9150806107d581610ab9565b9150506106f9565b5095945050505050565b60008083601f8401126107f957600080fd5b50813567ffffffffffffffff81111561081157600080fd5b6020830191508360208260051b850101111561082c57600080fd5b9250929050565b60008083601f84011261084557600080fd5b50813567ffffffffffffffff81111561085d57600080fd5b60208301915083602082850101111561082c57600080fd5b60008060008060008060006080888a03121561089057600080fd5b873567ffffffffffffffff808211156108a857600080fd5b6108b48b838c016107e7565b909950975060208a01359150808211156108cd57600080fd5b6108d98b838c016107e7565b909750955060408a0135945060608a01359150808211156108f957600080fd5b506109068a828b01610833565b989b979a50959850939692959293505050565b803563ffffffff8116811461092d57600080fd5b919050565b6000806040838503121561094557600080fd5b61094e83610919565b946020939093013593505050565b60008060008060006080868803121561097457600080fd5b61097d86610919565b94506020860135935060408601359250606086013567ffffffffffffffff8111156109a757600080fd5b6109b388828901610833565b969995985093965092949392505050565b600080600080604085870312156109da57600080fd5b843567ffffffffffffffff808211156109f257600080fd5b6109fe888389016107e7565b90965094506020870135915080821115610a1757600080fd5b50610a24878288016107e7565b95989497509550505050565b634e487b7160e01b600052604160045260246000fd5b634e487b7160e01b600052603260045260246000fd5b600060208284031215610a6e57600080fd5b6104e082610919565b600060208284031215610a8957600080fd5b5051919050565b634e487b7160e01b600052601160045260246000fd5b808201808211156104e3576104e3610a90565b600060018201610acb57610acb610a90565b5060010190565b81835281816020850137506000828201602090810191909152601f909101601f19169091010190565b63ffffffff85168152836020820152606060408201526000610b21606083018486610ad2565b9695505050505050565b6060808252810185905260008660808301825b88811015610b695763ffffffff610b5484610919565b16825260209283019290910190600101610b3e565b508660208501528381036040850152610b83818688610ad2565b999850505050505050505056fea264697066735822122095c77918c3d47b2f1409c6c6225ff457753f8a201639539980a30f5b3ecf737f64736f6c63430008130033",
    "linkReferences": {}
  },
  "methodIdentifiers": {
    "dispatch(uint32,uint256,bytes32,bytes)": "dacb69ed",
    "dispatchForMultipleChains(uint32[],uint256[],bytes32,bytes)": "571fee33",
    "getQuote(uint32,uint256)": "b0cbd4d6",
    "getQuoteForMultipleChains(uint32[],uint256[])": "fcf1c887"
  },
  "id": 19
}